:10400000C00A0020F1480000ED480000ED48000023
:10401000056C0000ED480000ED480000ED48000090
:10402000ED480000ED480000ED480000ED480000BC
:10403000ED480000A0D7020089450000ED480000CF
:10404000ED480000ED480000ED480000ED4800009C
:10405000ED480000ED480000ED480000ED4800008C
:10406000ED480000ED480000A5790000BD470000C4
:10407000C9470000ED480000ED480000ED48000091
:10408000ED480000ED480000ED480000ED4800005C
:10409000ED480000ED480000ED480000ED4800004C
:1040A000ED480000ED480000ED480000ED4800003C
:1040B000ED480000ED480000ED48000065C1020039
:1040C00009C1020005C10200BDB9020061C10200C0
:1040D0000DC1020025C1020011C10200E5A10200CC
:1040E000A5C10200ED480000ED480000ED480000C9
:1040F000ED48000081630000ED480000ED4800003D
:10410000ED480000ED480000ED480000ED480000DB
:10411000ED480000ED480000ED480000ED480000CB
:10412000ED480000ED480000ED480000ED480000BB
:10413000ED48000010B5054C237833B9044B13B19A
:10414000044800E000BF0123237010BD9C0E002036
:10415000000000004C03030008B5034B1BB10349EA
:10416000034800E000BF08BD00000000A00E0020D2
:104170004C030300A3F5803A704700BF174B002B98
:1041800008BF134B9D46FFF7F5FF00218B460F46F6
:104190001348144A121A28F05EFA0E4B002B00D076
:1041A00098470D4B002B00D09847002000210400B9
:1041B0000D000D48002802D00C4800E000BF28F098
:1041C000DFF92000290000F0D3F928F0C5F900BF7D
:1041D000000008000000000000000000C00A0020ED
:1041E0009C0E0020E42700200000000000000000DA
:1041F000F0B505460F46704A8FB006AC02F1180CB8
:10420000264610685168083203C662453446F7D125
:10421000106892883060B280284618F0FDFA674C2A
:10422000064606AB28B36649206802F0F0F86549F7
:10423000206802F0ECF800F004FB00F003FB624B96
:10424000624A00936249E023206802F0E0F83346B6
:10425000604A6149206802F0DAF8304600F01AFB43
:104260005E49206802F0D3F85549206802F0CFF883
:10427000FEE701461E22287818F04EFB064628B3BA
:104280004F49206802F0C3F84E49206802F0BFF899
:1042900000F0D7FA00F0D6FA4B4B4C4A00934C4949
:1042A000E723206802F0B3F833464A4A4A492068B7
:1042B00002F0ADF8304600F0EDFA4849206802F00F
:1042C000A6F83F49206802F0A2F8FEE7A02200907D
:1042D00003461146287818F0BDFA064628B3384937
:1042E000206802F094F83749206802F090F800F056
:1042F000A8FA00F0A7FA344B344A00933449F0236B
:10430000206802F084F83346324A3349206802F0CC
:104310007EF8304600F0BEFA3049206802F077F8A7
:104320002749206802F073F8FEE704AB00933A795E
:104330007B79FE2142EA03220346287862F30F03C9
:104340003A6818F0B5FA039000F07BFA00F07AFAB8
:10435000039A2349206802F05AF82878324604214B
:1043600018F00EFB054628B31549206802F04FF8F7
:104370001449206802F04BF800F063FA00F062FA8A
:10438000114B124A00931249FD23206802F03FF8B6
:104390002B46104A1049206802F039F8284600F0F0
:1043A00079FA0E49206802F032F80549206802F0D7
:1043B0002EF8FEE70FB0F0BD5ED702003C0F0020E4
:1043C00008D702000AD702007CD702000FD70200EC
:1043D00018D7020024D7020027D702003CD70200DA
:1043E0004DD702007047704730B503684B4A23F43D
:1043F0007F4323F00703934287B040F08C80002175
:104400000DF10E0303AA6FF01D0018F0DBFA04464D
:10441000434D00F016FA00F015FA4249286801F001
:10442000F6FF2CB34049286801F0F1FF3F492868A6
:1044300001F0EDFF00F005FA00F004FA3C4B3D4AB4
:104440003D49009328686B2301F0E1FF23463B4A76
:104450003B49286801F0DBFF204600F01BFA394990
:10446000286801F0D4FF3049286801F0D0FFFEE74A
:10447000EE238DF81030DD238DF81130CC238DF82C
:1044800012301123304804A98DF813308DF81440F0
:104490008DF81540FFF7ACFE22232C4804A98DF8B7
:1044A0001330FFF7A5FE3323294804A98DF81330F4
:1044B000FFF79EFE4423274804A98DF81330FFF729
:1044C00097FE5523244804A98DF81330FFF790FE7A
:1044D0006623224804A98DF81330FFF789FE77235D
:1044E0001F4804A98DF81330FFF782FE88231D486A
:1044F00004A98DF81330FFF77BFE99231A4804A90D
:104500008DF81330FFF774FEAA23184804A98DF81C
:104510001330FFF76DFE07B030BD00BFA0000100F3
:104520003C0F002057D7020008D702000AD702002C
:1045300090D702000FD7020018D7020024D702003C
:1045400027D702003CD70200C00A0020C20A002080
:10455000C30A0020C40A0020C50A0020C60A0020A1
:10456000C70A0020C80A0020C90A0020C10A00208A
:1045700008B503F034FAFFF735FF03F03DFAFFF713
:1045800032FF02F0A7FCF8E708F084BA08B5044847
:1045900008F02EF8BDE80840024808F059B800BFFE
:1045A00078D9020058D902000120704700B5C3B085
:1045B00008F088F908F0B1F948B1FFF7F5FF30B11C
:1045C00001A818F023F910B901A8FFF70DFF43B0B7
:1045D0005DF804FB00F07EB908B50421002000F06E
:1045E0007FFE0421062000F07BFE0721084600F034
:1045F00077FE0721082000F073FE07211C2000F041
:104600006FFE0721242000F06BFE0721252000F01B
:1046100067FE002008BD000007B501A801F018FAE8
:10462000254A936DDB0313D4536B23F4FF0323F468
:10463000FE4343F4BC1343F4A0635363136B23F4AE
:10464000704343F440431363136B43F4E063136319
:104650009DF80530012B0FD19DF8043063B94FF060
:1046600000531B68154B1B68154B1B68154B1B68CB
:10467000154B1B68154B1B68154AD2F8803043F068
:104680000303C2F8803001F089FC00F02EF901F03C
:1046900025FC01F0A1FC01F029FC01F065FCFFF70D
:1046A0009BFF01F00AFC00F01EF900F01BFA03B0BA
:1046B0005DF804EB02F038BB00C000400040002071
:1046C0000080002000C000200000012000400120E8
:1046D00000800040704708B502F0E4FE01F07EFC67
:1046E00000F05EF801F0DCFE05F04CFEBDE808408D
:1046F00002F0DEB908B501F0C5FB01F0CFFBBDE863
:104700000840FFF743BF00F09FB870477047FFF7BE
:104710004DBF704770B5114E92B035460BAC0FCD02
:104720000FC495E80700032384E8070003AD8DF864
:10473000443006F11C030FCB07AC85E80F0006F1EF
:104740002C030FCB84E80F00054B214600930BAAE6
:104750002B46044802F0B4F812B070BDA8D902008C
:10476000B80E0020180F0020831E012B0AD8012943
:1047700008D80422094B1B69C3F34013052100200C
:1047800001F05EB80239012907D8012805D8034B8A
:1047900000221B69C3F34013F0E7704700C00340D9
:1047A00008B50449044802F073FBBDE80840FFF770
:1047B000B1BF00BF140B0020F00E0020014B1868A1
:1047C00002F038B9180F0020FFF7F8BF014801F0D8
:1047D00081BF00BF180F00200120704701207047E3
:1047E00010B508F0DBF80446FFF7F6FF002814BF09
:1047F0002046002010BD38B502F044FC044608F005
:10480000DBF8042817D002284FF0000508BF012468
:10481000FFF7DCFF042810D0022808BF0124FFF7AF
:10482000DDFF04280BD0022808BF0124002D18BF8B
:104830000024204638BD0125EAE70125EFE70024E2
:10484000F7E7704770470000012208B5074B1A7060
:104850000022074B1A700422064B1A701F22064BC7
:104860001A7001F09BFD054B186008BD1C0B002061
:10487000400F00201D0B00201E0B00203C0F0020CD
:10488000024B0349186801F0C2BD00BF3C0F002075
:10489000E4D9020070B50C4C0C490646206801F0C2
:1048A000B6FD01F07BFD0546206801F06BFD30464A
:1048B000FFF7E6FF284601F065FD20680449BDE8E2
:1048C000704001F0A4BD00BF3C0F0020E6D90200FB
:1048D000E8D90200042208B511460023032000F0A5
:1048E000AFFF002008BDFFF775BE7047FEE7000070
:1048F00008B500F013F8064B064A07498B4201D36E
:10490000FFF73CFC52F8040B43F8040BF6E700BF3A
:10491000C00A0020540303009C0E0020044B054AEB
:104920009A60D3F8882042F47002C3F88820704758
:1049300000ED00E000400000014B1868704700BF28
:10494000240B0020014B1860704700BF240B00208F
:10495000084B1B6F03F00703022B04D0032B05D079
:10496000012B05D0FEE7044B18687047034BFBE7AB
:104970000348704700800040240B0020280B0020D3
:10498000002D310108B5FFF7E3FF054B1B6FC3F3A3
:1049900001330133B0FBF3F0024B186008BD00BFD8
:1049A00000800040200B00200048704700B4C40481
:1049B000014B1868704700BF280B0020054B18609A
:1049C000054B1B6F03F00703032B01D1FFF7DABF81
:1049D000704700BF280B0020008000400020704777
:1049E00000487047002D3101174B9868C0F3044010
:1049F0000C2822D8DFE800F0092121212121071706
:104A000019211B1D1F00114870479B6803F040735C
:104A1000B3F1807F13D0B3F1007F12D00C4A002B8A
:104A200008BF104670470B4870470B4870470B484B
:104A300070470B4870470B487047002070470A4882
:104A400070470A48704700BF0040014A405DC600F9
:104A500000093D000024F400C0EA210180BA8C0165
:104A60000048E801005A620280841E0040420F00A4
:104A70004FF4004070474FF47A707047014B18684C
:104A8000704700BF2C0B002000239B6AB3F5804FBA
:104A900003D21968064A914203D000230370836051
:104AA0007047012202709A689B694260F7E700BF75
:104AB00007B0CD5E00230360704703680B600160A0
:104AC0007047000005490A681318054883428CBFE7
:104AD0004FF0FF320B601046704700BF300B0020D4
:104AE00000800120024B1968024B186820F07CB846
:104AF000380B0020340B00207047000037B59200BF
:104B000004460D46019228F0EFFD431C0BD060B91E
:104B100029462046019A27F067FD0028044808BF6F
:104B2000002003B030BD0348FBE70348F9E700BFAE
:104B300010E000F021E000F024E000F013B504469E
:104B400001A800F085FF9DF80630012223804FF474
:104B5000807300206380054B9B680A3303F01F03BA
:104B600002FA03F3636002B010BD00BF0080E00FE3
:104B700000F0B2BE08B500F0A3FE002008BD10B5DD
:104B8000044644EA010313F00303084609D19342A3
:104B900001D1002010BD54F8231040F82310013338
:104BA000F5E72146920027F02FFDF2E710B5044605
:104BB00028F0A2FD431C15D0B0B90C4B20469B68D1
:104BC0000A3303F01F020123934023F0030323441D
:104BD000984201D1002010BD50F8042B0132F7D0CB
:104BE0000348F8E70348F6E70348F4E70080E00FDE
:104BF0000EE000F021E000F024E000F008B500F045
:104C0000D5FD014B186008BDD8150020014B186870
:104C100000F0D0BDD81500200A460139014401F04A
:104C2000A1BF00002E4B98424AD022D82D4B98426B
:104C300040D014D82C4B984239D00AD82B4B9842EC
:104C400032D02B4B98422FD02A4B98422CD00020A8
:104C50007047294B9842FAD1284B186F7047284B60
:104C600098422AD0274B9842F1D1244BD3F88000A8
:104C70007047254B98422BD009D8244B984223D01B
:104C8000234B9842E3D11D4BD3F88C007047214B46
:104C9000984221D003F5740303F510539842D6D1FE
:104CA000164BD3F898007047144B986D7047134B10
:104CB000586E7047114B586F7047104B986F704784
:104CC0000E4BD3F8840070470C4BD3F88800704724
:104CD0000A4BD3F890007047084BD3F89400704704
:104CE0000048E8010024F400C0CF6A0080841E0060
:104CF00000093D0040420F00405DC6000080E00F0B
:104D0000C0EA210180BA8C01007E560380D543029F
:104D1000006CDC020090D00338B5124B0546D3F886
:104D200020310C4603F00703013B032B17D8DFE8C3
:104D300003F0020A0E12FFF7FFFD042305B12860FD
:104D400004B1237038BDFFF733FE0323F6E7FFF706
:104D50004BFE0523F2E7FFF743FE0223EEE70023B5
:104D60001846EBE70080004037B50C460021124A98
:104D70000191D2F88021054602F00302022A0ED0EA
:104D8000032A11D0012A14D101A8FFF7C5FF0D2372
:104D90000DB1019A2A6004B1237003B030BDFFF752
:104DA00023FE05230190F3E7FFF71AFE022301908B
:104DB000EEE70B46ECE700BF0080004038B5104B33
:104DC0000546D3F840310C4603F00303022B0BD009
:104DD000032B0DD0012B0FD1FFF74AFE082305B19D
:104DE000286004B1237038BDFFF748FE0723F6E7BB
:104DF000FFF741FE0923F2E700231846EFE700BF63
:104E00000080004038B5104B0546D3F860310C46A1
:104E100003F00303022B0BD0032B0DD0012B0FD17A
:104E2000FFF726FE082305B1286004B1237038BDC2
:104E3000FFF724FE0723F6E7FFF71DFE0923F2E73D
:104E400000231846EFE700BF0080004038B5134B41
:104E50000546D3F800320C4603F00703013B032B51
:104E600018D8DFE803F0020A0E12FFF701FE08234C
:104E700005B1286004B1237038BDFFF7FFFD07239B
:104E8000F6E7FFF7F8FD0923F2E7FFF77BFD0C23B8
:104E9000800AEDE700231846EAE700BF00800040E3
:104EA00038B5134B0546D3F808320C4603F0070318
:104EB000013B032B18D8DFE803F0020A0E12FFF7BC
:104EC000D7FD082305B1286004B1237038BDFFF772
:104ED000D5FD0723F6E7FFF7CEFD0923F2E7FFF73D
:104EE00051FD0C23800AEDE700231846EAE700BFD6
:104EF0000080004038B5104B0546D3F840320C46D0
:104F000003F00303022B0BD0032B0DD0012B0FD189
:104F1000FFF7AEFD082305B1286004B1237038BD4A
:104F2000FFF7ACFD0723F6E7FFF7A5FD0923F2E73E
:104F300000231846EFE700BF0080004038B5104B53
:104F40000546D3F800310C4603F00303022B0BD0C7
:104F5000032B0DD0012B0FD1FFF72AFD032305B141
:104F6000286004B1237038BDFFF788FD0723F6E7FA
:104F7000FFF734FD0623F2E701230020EFE700BF2F
:104F80000080004041F671330F4A10B5D169D363F8
:104F900093680E4C23F44013A04288BF43F480135F
:104FA00093600B4A0B4CD2F81832A04223F0020354
:104FB00088BF43F0020301F48031C2F8183211B106
:104FC0000022014BDA6310BD00000340C0175302FA
:104FD00000C0074080F0FA0208B5FFF7E5FCBDE825
:104FE0000840FFF7CFBF0000032814D005D80128E0
:104FF00005D0022809D0002005E00F28FBD1084B7E
:10500000186FC0F3013001307047054BD3F89000A2
:10501000C0F30460F7E7024B186FC0F38020F2E79B
:10502000008000401FB500230293252817D8DFE831
:1050300000F0131A1D262B353A51565B60656A78CD
:10504000161A3F1616561A262B26351A5126783A66
:105050003A3A3A2626265B60FFF77AFC02900298DD
:1050600005B05DF804FBFFF78DFCF7E7FFF770FC78
:1050700002460220FFF7B8FFB2FBF0F0EEE7FFF7C1
:1050800081FC02460320F5E7FFF77CFC0246032083
:10509000FFF7AAFFB2FBF0F04008DFE7002102A80B
:1050A000FFF762FEDBE7002102A8FFF735FED6E737
:1050B00003934FF0E0231B695B0705D5FFF762FC04
:1050C0000390039B0293CAE70DF1070103A8FFF7C2
:1050D00075FEF6E7002102A8FFF770FEBFE700218A
:1050E00002A8FFF78FFEBAE7002102A8FFF7AEFE85
:1050F000B5E7002102A8FFF7D3FEB0E7002102A820
:10510000FFF71CFFABE7094BD3F8803003F0030334
:10511000022BA8D0032B01D000209FE7FFF764FCEF
:105120009CE7002102A8FFF7E5FE98E70080004019
:10513000032810B50C4626D004D8012804D0022834
:1051400016D010BD0F28FCD1FFF746FF00F026F85F
:10515000114B013C196F21F4405141EA04341C67A2
:10516000FFF710FCFFF70EFFBDE8104000F01AB883
:10517000094B013CD3F8901021F0F85141EA046446
:10518000C3F89040DDE7044B013C196F21F48061C6
:1051900041EA84241C67D4E70080004002210320F8
:1051A000FFF7C6BF08B50120FFF73CFFBDE8084088
:1051B000034988428CBF022101210320FFF7B8BFB9
:1051C00080F0FA02002307B58DF80230252822D896
:1051D000DFE800F013212121212C324C52585E646B
:1051E0006A7D212138212152212121212C214C218C
:1051F0007D32323232212121585E384B1B6F03F051
:105200000703013B032B06D8DFE803F00E020A0C6C
:1052100004238DF802309DF8020003B05DF804FB12
:105220000323F6E70623F4E70223F2E700200DF15B
:105230000201FFF799FDEEE700200DF10201FFF7F3
:105240006BFDE8E701934FF0E0231B695B0707D58F
:10525000FFF798FB0B238DF803309DF80330D8E758
:105260000DF1030101A8FFF7A9FDF6E700200DF1FC
:105270000201FFF7A3FDCEE700200DF10201FFF7C9
:10528000C1FDC8E700200DF10201FFF7DFFDC2E715
:1052900000200DF10201FFF703FEBCE700200DF135
:1052A0000201FFF74BFEB6E70C4BD3F8803003F05A
:1052B0000303022B03D0032B05D00023A9E7FFF73C
:1052C00061FB0B23A5E7FFF78FFB0523A1E7002078
:1052D0000DF10201FFF70EFE9DE700BF00800040C8
:1052E00070B50C46252847D8DFE810F026004600A8
:1052F0004600460046005A006B009C00AD00BE0010
:10530000CF00E000F1000201460046007C004600AC
:105310004600AD0046004600460046005A004600E2
:105320009C00460002016B006B006B006B004600A6
:1053300046004600BE00CF008B1E042B2DD8DFE8B0
:1053400003F0291C032C260000250226FFF744FE4B
:10535000FFF724FF6F4A136F23F0070333431367EC
:10536000FFF710FBFFF70EFEFFF71CFF25B9032C1C
:1053700002D10122684B9A6270BD0122674B03265D
:105380009D6A03F58053C5F340059A62DEE7002568
:105390000426DBE700250126D8E700252E46D5E7C1
:1053A0008C1EE4B20B2C8CBF00215D4B594A98BF78
:1053B000195DD2F8803123F003030B43C2F880312A
:1053C000DAE78C1EE4B2032C8CBF0021554B514A06
:1053D00098BF195DD2F8203123F007030B43C2F8C0
:1053E0002031C9E70B2912D00ED8CC1F022CC3D80C
:1053F0004D4A536A43F0010353624FF0E0221369B0
:1054000023F004031361B7E70E29B5D1F0E7464A4C
:10541000536A23F0010353624FF0E022136943F013
:105420000403EFE7CC1FE4B2022C8CBF00213F4BFA
:10543000384A98BF195DD2F8403123F003030B437B
:10544000C2F8403198E7CC1FE4B2022C8CBF002197
:10545000374B304A98BF195DD2F8603123F003030F
:105460000B43C2F8603187E7CC1FE4B2052C8CBF38
:105470000021304B274A98BF195DD2F8003223F043
:1054800007030B43C2F8003276E7CC1FE4B2052CC9
:105490008CBF0021284B1F4A98BF195DD2F80832F3
:1054A00023F007030B43C2F8083265E7CC1EE4B2D1
:1054B000042C8CBF0021214B164A98BF195DD2F8ED
:1054C000003123F003030B43C2F8003154E70529F0
:1054D0000CD00B2914BF002102210E4AD2F88030D3
:1054E00023F003030B43C2F8803045E70321F4E7C0
:1054F000CC1FE4B2022C8CBF0021114B054A98BF8F
:10550000195DD2F8403223F003030B43C2F8403256
:1055100032E700BF0080004000E0004000C00040D3
:1055200010DA02001CDA020000C0074020DA020094
:1055300020DA020023DA020023DA020029DA02006C
:1055400020DA020008B5FFF73DFE07280ABF024B2C
:105550004FF6FF70188808BD580B002038B5054677
:10556000FFF760FB204B04465A68012A04D11F490B
:105570004A609A699207FCD10020FFF723FE0428B5
:1055800003D1FFF729FDFFF709FE194A24F0407304
:10559000954220D0174A954220D0174AD16811F081
:1055A000060FFBD190689360916803F4F81301F43F
:1055B000F8118B4215D12846FFF7C4F90020FFF7F8
:1055C00001FE04280FD1FFF7DDF9FFF7DBFCBDE892
:1055D0003840FFF7E7BD43F00073DEE743F0807328
:1055E000DBE79060EAE738BD00C0014000E0014021
:1055F00040420F0080841E000000014070B5044648
:105600000020FFF7DFFD032877D045F60E030222C6
:105610003F49C1F880303F4B9A62012203F5805325
:105620009A628A6D12F48032FBD1637820781B0570
:1056300043EA0063A079257C0343E078667C43EA73
:105640000043207943EA0033607943EA80130B6119
:105650008B69E07A03F000430343E07943EA806317
:10566000207A43EA0063607A43EA0043A07A43EA7F
:1056700000238B61637B096A002B18BF0822207B03
:1056800021F00D0143EA010343EA800342EA0302E9
:105690001F49A37B0A624FEA43132FD1886AE27B3A
:1056A00020F0330043EA0213034343F001038B620B
:1056B000194B8A6D33EA0202FBD10222154B9A6222
:1056C0008B6D5B00FCD44FF000420869A37820F496
:1056D000700040EA03500F4B08619A611DB9022225
:1056E00003F580539A6216B901220C4B9A62A37C8F
:1056F0001BB1074B0A4AC3F8802070BD8A6A22F0AA
:1057000033023243134343EA45038B62EFE700BFA2
:1057100000C0004000D000400300014000E0004015
:10572000F1A7FFFF014B93F9000070478C16002092
:10573000F0B54FF4D1560227174A41788478C378E0
:1057400005785662154E4F2977604FF0010728BF44
:105750004F2106F5805677601669F603FCD441EABE
:10576000052151611B01417943EA04230B4301796F
:1057700043EA41039360C37981791B0143EA4113F2
:10578000417A0B43017A43EA41035360837A13B1B0
:105790006FF4D1535362F0BD00000240001002408C
:1057A000014B1880704700BF580B0020EFF31080AA
:1057B00072B6704700B962B67047EFF311803023BC
:1057C00083F31188704780F31188704770477047E2
:1057D0000A4A10B51369044643F00403136101F04B
:1057E000EDFCFFF7F3FF30BFFFF7F1FF01F0FAFC2C
:1057F0001CB9BDE81040FFF7C5B810BD00ED00E0D2
:10580000084A10B51369044643F00403136101F01C
:10581000D5FC30BF01F0E6FC1CB9BDE81040FFF735
:10582000B1B810BD00ED00E0704770474FF0402266
:10583000D36E017923F030030B43D3667047000029
:10584000F0B54AB1012530261C4C8D4006FB0044C2
:105850000BB341F21006A55130244443072904F14B
:10586000804404F5703419D80F2765688E00B7405E
:1058700025EA070502FA06F63543656052B90122AA
:10588000302402FA01F10D4A04FB00209BB141F2E1
:105890001003C150F0BD42F21006DCE70F27A1F162
:1058A0000805E668AD00AF4026EA070602FA05F5EE
:1058B0003543E560E2E742F21003EAE700C0034047
:1058C00041F67132034BDA63012203F50053DA60CB
:1058D000704700BF0000034041F671320121044BC4
:1058E000DA6303F50052D1600022DA63704700BF2B
:1058F000000003404FF090435A6812B19A6A002AA0
:10590000FAD17047CB784A7810B55B010C7843EA3E
:1059100082030A79234343EA02130C22424302F131
:1059200090421363012C02BF8A78024B43F8202077
:1059300010BD00BFD080034008B54FF090435A68B7
:1059400002B960B15B680BB1FFF7D4FF4FF0904133
:1059500030B10120074B5860FFF7CCFFC86008BD8D
:10596000FFF7C8FF0223CB60FFF7C4FF0122024B01
:105970005A60F4E700100048002000484FF09043C0
:105980005B6870B50BB1FFF7B5FF0121104B45788F
:10599000596083780679002BC37814BF0224002451
:1059A000002B14BF042200224379DB0043EA0613D4
:1059B0002B43234313434FF090429360054B5960B0
:1059C0000378002B14BF0B460223D36070BD00BFC9
:1059D0000020004800100048436813B94160704738
:1059E0005B685A68012AFBD159607047836813B914
:1059F000816070475B685A68012AFBD15960704723
:105A0000C369032B9FBF00EB83020133D160C361E5
:105A10007047C369042B15D84FF09842116CC90226
:105A2000FCD504339B0013650168103B116041688D
:105A30000C30116050F8041C034411604FF0984280
:105A4000984200D1704750F8041B1160F8E700003D
:105A5000054B5B69C3F38512827003F03F021B0B99
:105A600042700370704700BF00C0074040F6B73275
:105A7000064B5B689BB293429FBF4FF47A72B3FBB5
:105A8000F2F3034AD05C88BF002070470080E00F2B
:105A90002EDA02000D4B984208D1A3F50033C3F86B
:105AA0008411C36D43F08003C3657047084B98426F
:105AB00004D1A3F51033C3F89411F2E7054B9842D3
:105AC00004BFA3F52033C3F8A411EAE70080054022
:105AD00000C005400000064070B5054616461C464D
:105AE00019B90320FFF79EFA0146402C1BD003D8BA
:105AF000DCB1202C1BD070BD602CFCD1042303FB37
:105B000006F2560806EB4113B3FBF2F3094A203BB9
:105B100002EAC303AA6822F06002AA60AA681443DA
:105B2000AC60EB61E7E70623E9E71023E7E708232A
:105B3000E5E700BFF8FF7F00012200F580535A60BF
:105B4000CB43934003F00A034361416111B900F56F
:105B50000050426070470000012200F5805310B5EC
:105B60005A6040F6AA6341F20502436100231249DC
:105B70008360C365C26000F500520361C361C36402
:105B800091640E498365884206D00D4CA04203D033
:105B900004F58044A0420BD18842036506D0084B2F
:105BA000984203D003F58043984201D10023436516
:105BB0000123536010BD00BFFFFF010000800540BE
:105BC00000C0054070B50D46FFF7C6FF012300F584
:105BD00080567360AB7C04461BB1836843F08043FE
:105BE0008360EB7C1BB12046297DFFF753FF2A8A97
:105BF0006B7B20461343EA891343E3602B7BD5E993
:105C00000112FFF769FF6B7D1BB1A36843F480337A
:105C1000A360AB7DEA7D1B07120502F4E00203F0EE
:105C2000E0431343A3652A7E931E012B214B20D80A
:105C30009C421AD003F580439C4218D003F5804360
:105C40009C420CBF02234FF0FF3341F2AC510220C3
:105C50005B0103F1804303F570335850032A23D1CD
:105C60000423F3652B78636170BD0023EDE7012306
:105C7000EBE79C4214D0104B9C4213D003F58043B9
:105C80009C420CBF02234FF0FF3342F2AC51022082
:105C90005B0103F1804303F570335850012ADEE7BE
:105CA0000023F2E70123F0E7042204F50053DA654C
:105CB000D8E700BF0080054000C0054083691B068F
:105CC000FCD5406AC0B2704783695B06FCD5C163EE
:105CD0007047000038B50446054D20F0B3F80FCCEE
:105CE0000FC594E80F0085E80F00002038BD00BF05
:105CF0009016002047F6FF739A42F0B55ED0032954
:105D00005ED8304ECF0016F8313006EBC100012BC3
:105D100085780DD1C3785B1B23B1416831F913102D
:105D2000914202DCE818C0B2F0BD013B1BB2F3E7C0
:105D300040680028F8D0B0F90030934204DBB0F995
:105D400002309342B8BF134682883E44FF2A19BFEF
:105D5000C8242821B0F90640B0F90810A4EB0304C8
:105D60000CBF0122002294FBF1F47678224414B295
:105D7000721EA242A8BF22464FF47A7700EBC204FB
:105D8000E188A468013213FB014112B221EAE171FA
:105D900001F5FA71B242B1FBF7F104DA00EBC2048B
:105DA000A4888C42EAD200EBC20232F8040C88428A
:105DB00028BF0846A84238BF2846B4E7FF20B3E70B
:105DC0000020B1E7901600200329F0B554D82B48E5
:105DD00000EBC10310F831105C6801290FD19878ED
:105DE000D978914294BFC0EB0103C0EB0203091ABA
:105DF000DBB28B42C8BF002334F91300F0BD002C86
:105E00003AD09978914202D3B4F90200F6E7D978F2
:105E1000B4F900009142F1D9A1885B78FF294FF0D5
:105E2000000114BF03F1FF33023BDBB2251D04F177
:105E30000C071FFA82FCCEB2B34216D805EBC101A3
:105E40004FF47A756A43B1F902304968521A03EB8C
:105E5000D37102EB610292FBF3F29042CEDBB4F914
:105E600002009042CADC10B2C8E737F831E04E1C9D
:105E7000E645E3D33146DEE70148BFE79016002050
:105E80000080FFFF08B50448FFF724FFBDE8084085
:105E900001201FF0D9BF00BF34DA0200002307B58C
:105EA000CDE90033012369464FF0FF308DF8023011
:105EB0001FF080FF03B05DF804FB4FF0402213B5E4
:105EC0000024536F684643F00103536700948DF834
:105ED0000440FFF7ABFC204602B010BD08B50248F5
:105EE000FFF73CFB002008BD00B4C40470B586B0C9
:105EF00001AA1546184B03F1100614461868596894
:105F0000083303C4B3422246F7D119889B78218015
:105F1000A370124BD3F84C21120314D4D3F8504180
:105F2000E4B28DF80E40FFF7FDFB204480F308003B
:105F30008DF80D000A48FEF741FD2846FFF75EFB8D
:105F4000002006B070BD074B1C884FF6FF739C42C3
:105F500008BF8224E5E700BF20DB02000080E00FDD
:105F600000F049020001E00F1FB50B4A01AB1068B9
:105F7000516803C31189927A19809A70252301A868
:105F80008DF80530FFF7D4FB6420FFF709FC0020F3
:105F900005B05DF804FB00BF33DB02006FF00402C4
:105FA000502110B50A480B4C12F0800FD3B21BBF22
:105FB00003F00F03043BA3181B1802F101020CBFEE
:105FC00083F8001319763D2AEED1002010BD00BFE2
:105FD00000ED00E000E100E000F07AB838B501F033
:105FE00061FA0446E0B901F05DFB4FF416734343D8
:105FF0000C4803F5742303F23F23B3FBF0F30A4A82
:106000000A4913600A220D680948013A12F0FF029A
:1060100040F8043BF9D103EBC3022B4413440B605B
:10602000204638BD40420F00EC160020B816002074
:10603000BC16002070470000012208B5034B1A70FF
:1060400001F024FB024B186008BD00BFB41600200D
:10605000E8160020F8B5144C237823B301F016FBA2
:10606000124B134D1B68134EC01A012838BF012074
:10607000114B124F18602B7856F8232046F8230056
:10608000111A3A680E48521A0A213A600932B2FBD4
:10609000F1F20133DBB20260B3FBF1F201FB123328
:1060A0002B7000232370F8BDB4160020E8160020E2
:1060B000E4160020BC160020B0160020B816002000
:1060C000EC160020014B1868704700BFEC1600204A
:1060D00020230949094A81F82D33094B03F5005063
:1060E000426702674FF4005003F58053C1F8840102
:1060F00048605A67704700BF00E100E0010000A05F
:1061000000C00040054B064A1B78916DC90700D5B9
:1061100013B10028F9D170470120704704170020FF
:1061200000C000402DE9F843874B1E6F9D6A9C6AB2
:10613000F00705F0020504F001044CD5012783495E
:10614000834A91F80090DFF828821767B9F1000FB1
:1061500000F0ED800020087098F80010B94200F2BD
:10616000E18002219762A2F5805291629A6DD1037B
:10617000FCD478495A6B096822F470620A435A6366
:106180007548764A99690068126821F47F010243D4
:1061900021F47F410A439A617148724A1969126871
:1061A000006821F47F6121F00F0102430A431A6164
:1061B0006D499A69096822F0FF020A439A61022335
:1061C000002D40F0AB80624A93620123002C00F066
:1061D000A780664A936216F000527FD04FF0010EFE
:1061E0005B4F63493A67594A574B82F800E00A7897
:1061F000DFF864C172440A705A6B564902F4706049
:1062000008609869554900F47F4008609969DFF893
:10621000588101F47F01CCF80010D3F818C05FFA60
:106220008CFCC8F800C0D3F810C0DFF838810CF43B
:106230007C6CC8F800C0D3F810C0DFF824810CF0E3
:106240003F0CC8F800C0C7F828E04FF0020EDFF896
:106250001CC1CCF828E04FF0004ECCF828E0D3F871
:1062600058C01CF4803FFAD14FF0004C22F4706209
:1062700042F40072B0F5C84FC7F828C05A6302D87C
:10628000B1F5C80F0CD9304A3A499369096823F42B
:106290007F0323F47F4343EA012343EA01439361ED
:1062A000294A35491369096823F47F6323F00F03F2
:1062B000880843EA910343EA80131361936923F04A
:1062C000FF030B4393610223002D37D102F50052E7
:1062D00093620123002C33D0244A9362002E1BDAF0
:1062E0004FF000421A4B18491A67244A12789AB1A3
:1062F00001229A620222A3F580539A628A6DD20328
:10630000FCD44FF000429A61022205B9104B9A6208
:106310000123BCB1154A9362BDE8F883134A53E7E1
:106320000B4A57E7FFF786FE144B1F7053E7FFF742
:1063300091FE00F0B7FE88F800904CE70B4AC7E7E3
:10634000034ACAE7024AE6E700C0004004170020FB
:1063500000E000400817002000170020FC16002075
:10636000F8160020F4160020F016002000D000409F
:1063700005170020600B00205C0B00200617002092
:10638000FFF7D0BE10B50446FFF710FA024B1C60B1
:10639000FFF710FA002010BD0C17002010B5FFF712
:1063A00005FA034B1C68FFF705FA204610BD00BF35
:1063B0000C17002007B530B9CDE90012FFF7EEFF4A
:1063C000DDE9001230B1436823B1006803B05DF825
:1063D00004EB1847232003B05DF804FB30B51C46DE
:1063E00085B058B9CDE90012FFF7D8FFDDE90012FA
:1063F00004B903AC20B9232005B030BD03B903AC08
:106400008568002DF7D023460068A847F4E70EB44E
:1064100077B507AB53F8046B05460193B0B9FFF7A6
:10642000BDFF044605463046019926F0A5FAAC4268
:10643000064602D02046FFF7A5FF002ED4BF372026
:10644000002003B0BDE8704003B07047FFF7A6FF1F
:1064500085420446E7D02846FFF794FFE3E7002093
:106460007047FEE74FF4005300204B607047012057
:1064700070470020704707B5002001AB0190FFF77F
:10648000ADFF0198002808BF4FF0FF3003B05DF862
:1064900004FB10B514460020FFF78CFF204610BD0A
:1064A000034B0222186800238068194626F0A0B921
:1064B000940C002090F8233001223BB190F8273053
:1064C000022B03D180F82720184670471346FBE7BC
:1064D00080F82010704790F82000704790F8240052
:1064E00070472DE9F8434FF00008044617461D4653
:1064F000C3F800804E1E2B68BB4206D32B68002BCE
:106500000CBF1B200020BDE8F883FFF756F9D4F834
:106510001490FFF758F9B9F1000FEFD0A269E368C2
:10652000D35C06F8013FE068E3690130984208BF98
:106530004046E060FFF741F96369013B6361FFF7A3
:1065400042F96368204698472B6801332B60D2E7F5
:1065500038B50546FFF72AF904460021284600F021
:1065600013FC2046BDE83840FFF724B92DE9F0417F
:1065700004460D46164690F82070FFF717F90123E0
:1065800094F8238084F82330FFF714F9B8F1000F52
:1065900003D194F82600FFF7DBFF2E449FB1AE42F3
:1065A00013D02B780A2B03D10D212046236898475E
:1065B0002046236815F8011B9847F0E7204623681A
:1065C00015F8011B9847B542F8D194F82660FFF7FB
:1065D000EDF805460121304600F0D6FB2846FFF7CE
:1065E000E9F8002084F82300BDE8F081002809DBE9
:1065F0000122430900F01F0002FA00F0024A603352
:1066000042F82300704700BF00E100E070B5044687
:106610000568FFF7C3FE844202D10020FFF7B2FEF7
:1066200095F92100FFF7E2FF95F92130002B0DDBF2
:1066300001215A0903F01F0301FA03F31449203220
:1066400041F82230BFF34F8FBFF36F8F95F92200CF
:10665000FFF7CCFF95F92230002B0DDB01215A0901
:1066600003F01F0301FA03F30949203241F82230F5
:10667000BFF34F8FBFF36F8F00232846C4E9003369
:10668000C4E90433A360AB68BDE87040184700BF9D
:1066900000E100E070B590F8243004460D4681B169
:1066A00073B990F82560FFF781F80546012130465F
:1066B00000F06AFB2846FFF77DF8012384F82430B8
:1066C00070BD002BFCD090F82500FFF741FF84F847
:1066D0002450F5E7036A006818470000F8B51F4624
:1066E000536806460C461546002B63D09368002B72
:1066F00062D028220021204625F0ADFF6B6820469D
:10670000A361AB68E3612B7B2760012784F820300D
:10671000069B6360079BA3602B7884F821306B781D
:1067200084F82230254B34607360254BB360254BD1
:106730003361254B7361254BF360254B3362254B49
:1067400084F82770B361244BF3619DF8243084F8FA
:10675000237084F826309DF8203084F825300023FB
:10676000697B84F82430FFF795FF95F90100FFF766
:106770003DFF95F90130002B06DB5A0903F01F039A
:106780009F40164B43F8227095F90000FFF72EFF4B
:1067900095F90030002B08DB0122590903F01F0393
:1067A00002FA03F30D4A42F821303046FFF7EAFDC2
:1067B0000020F8BD2220FCE72120FAE76D650000EB
:1067C000E3640000D1640000D76400000D6600009F
:1067D000B564000095660000DD64000000E100E0A3
:1067E0004269C06982422CBF0020012070470369C2
:1067F0008269D1544269036901324261C26901333D
:106800009342036104BF00230361042380F827300F
:10681000704790F8233010B504464BB9012380F837
:10682000233090F82600FFF793FE022384F82730E8
:1068300094F8230010BD826AD36C43F00403D36440
:10684000704710B50446826A93695B06FCD5002345
:1068500094F82E101A4694F82D00FEF7F1FF00234D
:1068600094F830101A4694F82F00FEF7E9FF94F8D8
:10687000353093B1002394F832101A4694F8310061
:10688000FEF7DEFF94F835303BB1002394F8341066
:106890001A4694F83300FEF7D3FFA06A0021FFF7F1
:1068A0004BF9002010BD10B50446806AFFF70CFAC2
:1068B000A26A0020D36C43F00103D36410BD000032
:1068C0002DE9FF414FF001081C46564B0A9D0193EC
:1068D000554B174600930A46CDE902882946534B8B
:1068E000FFF7FCFE0646002875D123680422AB6240
:1068F000237985F82C30A17985F82E10607985F8F8
:106900002D00237A85F83030E37985F82F30A37A8B
:1069100085F83230637A85F83130237B85F834305E
:10692000E37A85F833304346FEF78AFF4346022276
:10693000217AE079FEF784FF3E7039462068FFF740
:1069400041F91421627B3A4B03EB4210C0F8AC15BD
:1069500094F806C061792E3203EB421341EA0C41F0
:106960005960227AE37943EA0243C0F8BC3585F8DE
:1069700035603B7E032B52D8DFE803F01F02314C19
:106980000123002785F8353000230222A17A607A9E
:10699000FEF756FFA17A627A637B42EA014241F236
:1069A000B4515B0103F1804303F570335A50042264
:1069B000236803F58053DA65A7B96379052185F863
:1069C0002D30A37985F82E302068C36C43F0040382
:1069D000C364FFF7B1F8304604B0BDE8F08102238C
:1069E00085F8353000230422217BE07AFEF728FF6A
:1069F00041F2AC520221637B5B0103F1804303F55A
:106A000070339950217BE27A42EA014241F2B85157
:106A10005A50D2E70323012785F83530B4E72326FF
:106A2000D9E700BF4368000037680000A76800008E
:106A300000C00340836A10B59B690446190609D556
:106A4000FFF7CEFEE0B1A06AFFF738F90146204615
:106A5000FFF7CDFEA36A9A6CD20710D5012103F58A
:106A600000529164DA6C204622F00102DA64FFF7EA
:106A7000D0FE20B9A26AD36C43F00103D36410BDE9
:106A8000A26AD36C23F00403D364E3E7BFF34F8F10
:106A9000BFF36F8F054B5A6A22F480325A62D3F8E3
:106AA000942022F00102C3F89420704700ED00E02A
:106AB00070B52548254CFFF7E9FF844208BF4FF029
:106AC0008043234A18BF20F01F03D2F8C01018BF1C
:106AD000203B21F0FF0141F0A001B3F1005FC2F8BB
:106AE000C0100CD31B4D1C4E296843F00103C2F8A3
:106AF00098100131C2F89C60C2F8A030296084422D
:106B000010D01448154B0268114923F01F0343F0BD
:106B10000303C1F89820C1F89C30114B0132C1F831
:106B2000A0300260BFF34F8FBFF36F8F0522084B79
:106B3000C3F894205A6A42F480325A62BFF34F8FEE
:106B4000BFF36F8F70BD00BFF80C0020940E0020C3
:106B500000ED00E01017002003000020B30E00201D
:106B6000E1FFFF3F10B51446FFF790FF1F2C21D91E
:106B7000194A1A4CD2F8C03021F01F0123F47F4388
:106B800043F48073C2F8C030C30618BF20F01F0062
:106B90002368114A18BF203020F01F00C2F8983037
:106BA00040F0030041F003010133C2F89C00C2F839
:106BB000A0102360BFF34F8FBFF36F8F0522064BEA
:106BC000C3F894205A6A42F480325A62BFF34F8F5E
:106BD000BFF36F8F002010BD00ED00E01017002004
:106BE000BFF34F8F0549064BCA6802F4E0621343B6
:106BF000CB60BFF34F8F00BFFDE700BF00ED00E0AB
:106C00000400FA0508B5FFF7EBFF08BD034B1B783E
:106C1000002B14BF01200220704700BF4017002046
:106C20000329F8B598BF124B05460E468CBF0024C9
:106C30005C5C032805D8DFE800F002080B0E44F086
:106C400002040C4B1F684FB9F8BD44F00804F8E784
:106C500044F02004F5E744F08004F2E77B681A680A
:106C6000144203D0314628465B6898473F68EAE7FC
:106C70003EDB02003C17002038B5104D2B78ABB13D
:106C80000F4C23781BB100F0D9FA002323700020A9
:106C900000F0F6FA0B4C50B100F0FCFA0023012191
:106CA00020782B70FFF7BCFF0123237038BD012231
:106CB000054B1A702278054B1A70F7E73917002038
:106CC000351700202C170020381700204817002007
:106CD00010B5FEF76BFD064B04461B781BB1BDE8F3
:106CE0001040FEF767BDFFF7C7FF2046F7E700BF7C
:106CF00034170020002814BF0121FF21074A137810
:106D00000B44137008D0064B1B78012B04D9054B9C
:106D10001B780BB9FFF7B0BF704700BF40170020CA
:106D20002C1700203817002070B5FEF73FFD114EDC
:106D3000054633788BB900F0B5FB044620B12846F0
:106D4000FEF738FD204670BD00F0ACFC0A4B186021
:106D50000A48FDF7AFFE0A4B1C6000F0C7F900F0CF
:106D6000CDFA084B00241860012328463370FEF743
:106D700021FDE7E736170020441700203C170020CC
:106D80004C1700203017002000292DE9F34114BFD3
:106D90000121FF21254A00F1FF30135C0B441354FD
:106DA0003AD0234E3278012A36D9FFF72FFF012837
:106DB000044634D81F4FFEF7F9FC3B781BB31E4D39
:106DC0002B781BB901222A701C4A1370DFF87080DF
:106DD00098F8003033B1019000F030FA00230198A8
:106DE00088F80030FEF7E6FC012000F049FAFEF7D3
:106DF000DDFC2B782BB1019000F04CFA00230198B8
:106E00002B7000233B70FEF7D5FC3078A04203D0F6
:106E10002146FFF705FF347002B0BDE8F081032A78
:106E2000F3D10228F1D100F083FAEEE740170020F9
:106E30002C170020391700203417002038170020A5
:106E40003517002068B5FEF7B1FC094B06461B78E4
:106E5000012B04D8FEF7AEFC0025284668BD054B83
:106E60001D6800F04FFA05443046FEF7A3FCF4E736
:106E70002C1700204C17002007B5FEF797FC019057
:106E8000FFF7FAFE019803B05DF804EBFEF792BC41
:106E900038B541600446FEF789FC054621460448A2
:106EA000FDF70BFE2846BDE83840FEF783BC00BF67
:106EB0003C170020054B1B685843054B00F5742018
:106EC00000F23F20B0FBF3F0704700BF44170020F2
:106ED00040420F002DE9F04385B0FEF767FC044601
:106EE000FDF77EFC00287BD05B4E5C4F337823B1EE
:106EF0000020FFF7FFFE00233370FFF787FE0546F3
:106F0000002873D0851EEDB2012D76D9FFF77EFEE5
:106F10000128054604D9524B1B780BB900F04CF9F7
:106F2000DFF85881DFF8589198F80000A84207D0A0
:106F300099F8003013B92946FFF772FE88F800501F
:106F4000012D0CD9464D2B784BB9464B1B7823B9F4
:106F500000F06EF90122444B1A7001232B7098F84F
:106F6000000000F0B5F999F800301BB13F4B1B78D9
:106F700088F8003000E000BF2046FEF71BFCFEF75B
:106F800015FC0446384600F0C7FAFDF734FC054608
:106F90000028ABD1324F3B789BB189F80000DFF875
:106FA000C89099F800301BB100F048F989F80050FA
:106FB000002000F065F9002844D000F06BF90023B0
:106FC0003B70337823B10020FFF794FE0023337029
:106FD000002198F80000FFF723FE002388F8003016
:106FE000204605B0BDE8F043FEF7E4BB3378002B44
:106FF0008CD0FFF77FFE357088E7002003A900F0F2
:107000000DFB0546002881D1194B039A1B689A4253
:1070100005D80120FFF76EFE0123337076E7154B8C
:10702000D3F8008000F06EF9039940448842F0D212
:107030000223091ACDE9005338462B460E4A00F0C8
:1070400093FA63E7012000F043F92046FEF7B2FB14
:10705000FEF7ACFB0446ABE74317002014170020F3
:10706000391700204217002035170020481700204C
:10707000301700204C170020D16C00002C17002086
:107080003817002010B5FEF791FB0022044B1C7846
:107090001A70FEF78FFB00F0D7FB2043C0B210BD83
:1070A0003717002038B50B4D2B788BB10A4C23785D
:1070B00073B100F0EFF8094B01211878FFF7B0FD2C
:1070C00000220123064922700A70064A2B701370B1
:1070D00038BD00BF2C1700203817002048170020AB
:1070E0003917002037170020704700002C4A2D4B1D
:1070F000116F2D4801F0070170B51960D2F82031E9
:107100008069032900F0020041D003F00703991EB3
:107110004B424B41D2F88012244D01F001010B4348
:1071200023490B7060B33BB9D2F8003103F003037D
:107130005A1E534253410B70194BD3F8003103F0E0
:107140000303022B25D0032B26D0012B18D1FDF7EA
:107150002FFCA8B1144B411EDC68002302460846F0
:107160001946C4F30B04134E013404EB8404E4FB0E
:10717000060125F059F8FFF79DFE2B68184428609A
:107180006420FFF797FE2B681844286070BD012328
:10719000C0E7FDF773FCDCE7FDF720FCD9E700BF93
:1071A000008000405017002000C001405817002008
:1071B0005617002040420F00FEF736BB074B1A78E7
:1071C00052B100221A70064A136F23F0070343F0EE
:1071D00001031367FDF7D6BB704700BF54170020AB
:1071E000008000400E4B10B51B7883B1022000F0E8
:1071F000C9FB60B100F044FA48B10A4B9A6DD20362
:1072000006D5DB6D9B0703D50122074B9A6210BDA3
:107210000124064B1C70FEF70FFF034B9C62F6E740
:107220005617002000C0004000D000405517002035
:107230000122014B1A7070475417002038B50C4BCF
:107240001B786BB10B4C23787BB90B4B0B4D9A6DB4
:1072500012F4803F05D0DB6D9B0702D50123AB62A2
:1072600038BDFEF7E9FE0123AB6200232370F7E788
:10727000561700205517002000C0004000D00040E5
:10728000034B1B780BB1FEF73DBF0120704700BFD9
:107290005617002008B5FEF7C8FA094A0949136FC6
:1072A000096823F007030B431367074B1B7813B1DF
:1072B0000122064B9A62BDE80840FDF763BB00BFA0
:1072C00000800040501700205617002000E00040CA
:1072D00002280AD003280BD001280CD1064A1369D2
:1072E00023F00403136130BF70470020FEF770BA2B
:1072F0000020FEF785BA704700ED00E04FF4C8703B
:10730000FFF7D8BD08B5054B187818B1FEF7DAFEBF
:1073100000EBD000024B1B68184408BD5617002034
:10732000581700200122014B1A7070475617002091
:107330007047000038B500F0CDFA094B094A1968CA
:1073400039B113684C69C51AAC4204D323441B1AE3
:107350004B61106003E00023001B10604B6138BDDF
:107360007417002060170020C38870B504460D46CE
:107370003BB9FFF767FD8542064602D2FFF77CFD69
:1073800035460F4965610B68ABB90C60A36011E02D
:10739000AD1A9A68184665612AB113465A69AA421D
:1073A000F6D950B11A4613468460A36013B15969E7
:1073B000491B596170BD0020F0E70C60F5E700BF84
:1073C0007417002038B50F4B0F4D1C682B68022036
:1073D0005B691C4400F0B2FA204600F083FA0023F7
:1073E0000A492A680B70D088800702D501230B70E8
:1073F00038BD9268002AFBD050690344012BF2D9B2
:10740000F6E700BF601700207417002068170020FF
:1074100070B59DF81450164605710025049A8560D4
:10742000BDF818500446C580C0E903360D46026019
:1074300029B941610BB11146984796B13546FEF71F
:10744000BCF90646FFF776FF29462046FFF78CFF7A
:10745000054B1B68A34201D1FFF7B4FF3046FEF78E
:10746000B2F9002070BD00BF7417002000220C4943
:107470000B687BB183420AD183687AB193608368D9
:107480001BB15A6941690A445A61002070471A4683
:107490009B68EEE70028EFD0022070470B60EEE714
:1074A0007417002070B5FEF788F9144E054634783D
:1074B000FCB9134B1C60134B1C60134B1C8000F079
:1074C000CFF9012000F03AFA00F086FA0F4B02469D
:1074D000186020B92846FEF776F9232070BD2346B0
:1074E00040F2E7310A4824F09FFE0A4B186001235E
:1074F00033702846FEF767F90020EFE75C1700209D
:1075000074170020601700206A17002070170020F1
:1075100018FCFFFF641700202DE9F0410546F8B183
:10752000FEF74BF90F4F0646FFF704FF2846D7F842
:107530000080FFF79BFF044628B13046FEF743F971
:107540002046BDE8F081A8453B6803D123B1FFF791
:1075500039FFF2E7002BF0D1022000F0FBF9ECE755
:107560002224EDE77417002070B586B015461E463C
:107570000446059180B1FFF7CFFFBDF82C30002203
:1075800002939DF828302046CDE9006305992B46EB
:10759000FFF73EFF06B070BD2220FBE738B50C4672
:1075A000054698B191B100230B70FEF706F9012151
:1075B000074B1B680BB122781AB1FEF704F90020C3
:1075C00038BDAB4214BF9B682170F3E72220F7E778
:1075D00074170020F0B51F46002387B00D461646ED
:1075E00004468DF81730A0B10DF11701FFF7D6FF53
:1075F0009DF817207AB9BDF83430294602939DF8DA
:1076000030302046CDE900733346FFF701FF07B065
:10761000F0BD2220FBE70320F9E700002DE9F0414F
:1076200007468846FEF7C9F800260546124B1C6837
:1076300024B92846FEF7C7F81B2016E063691E44EC
:10764000E388BB4215D100F045F90C4C2368C01A01
:10765000B0420CD200F03EF922683244121A284699
:10766000C8F80020FEF7AFF80020BDE8F081002246
:10767000F5E7A468DCE700BF74170020601700205E
:10768000014B1878704700BF6817002038B5FEF727
:1076900094F8054600F01EF904462846FEF793F8D4
:1076A000204638BD014B1868704700BF7017002096
:1076B0000A4B10B51B680C4683420CD3084B4FF4A1
:1076C0007A7219680023A0FB010124F0ADFD01309E
:1076D0002060002010BD2120FCE700BF64170020BF
:1076E000701700200F4B10B51A689AB14FF47A71D9
:1076F000531E1342A0FB01010ED1B2FA82F2C2F175
:107700001F04531CD243E04001FA03F3184321FA4B
:1077100002F20243104610BD002324F085FD02460C
:10772000F8E700BF70170020C2072DE9F84F0446A4
:107730000BD5414A138801339BB21380FFF7FAFD42
:107740003E4B1B680BB1FFF73DFEA30771D500F060
:10775000C1F8DFF8F0904FF00008D9F80070064645
:10776000C71BFEF72AF8C34605464246334B1C6842
:1077700014B16369BB4219D90021314BB8F1010F33
:10778000197005D122B1D288022A08BF83F800807F
:10779000002C4AD06369C9F80060DB1B6361FFF706
:1077A00011FE2846BDE8F84FFEF70DB823463A46CD
:1077B000C9F800605969914209D8187994F804C051
:1077C000521A844588BF1C469B68002BF2D128467C
:1077D000FDF7F9FF6569C4F814B0FDF7EEFF8246C6
:1077E0002046FFF743FE5046FDF7EDFF23694BB1FE
:1077F000FDF7E3FF824621692046FFF7B5FD5046BD
:10780000FDF7E1FFE36813B120462168984700F0D7
:1078100061F835447F1B82460744FDF7CEFF56468C
:107820000546224608F10108A0E7022000F092F880
:10783000B7E7BDE8F88F00BF6A1700207417002073
:107840006C1700206017002010B5FDF7B6FF034B42
:107850001C78FDF7B8FF204610BD00BF6C17002054
:107860001FB50024184B18689A880290D3F80600B8
:107870009B7A009002A8ADF80C208DF804308DF8AA
:1078800008408DF80C40FEF779F8694601208DF824
:107890000040FEF737F84FF090431F219A6922F01D
:1078A0001F029A61094A51619A6A12F00802FBD1DB
:1078B0001A620120FEF740F84FF48062044BC3F8CF
:1078C00080211A6004B010BD42DB02000020004895
:1078D00000E100E04FF090439A6A1207FCD4186A66
:1078E000704700004FF09042936A1907FCD4136A66
:1078F000116C5269120704D4CA1A032A01D899429A
:107900000ED1C21A022A98BFD81CB0F1FF3F38BF6F
:1079100001384FF0904318649A6942F008029A6166
:10792000054A13783BB14FF09041CB6B43F0020313
:10793000CB63002313707047640B002082074FF065
:10794000904200F00103916948BF43F008030B43E4
:1079500093617047820700F001030AD50121084AAC
:1079600043F0080311704FF09041CA6B22F00302FC
:10797000CA634FF090418A6922EA03038B61704722
:10798000640B00204FF0904301285B6904D002286B
:1079900005D1C3F3C000704703F001007047002019
:1079A0007047000010B5FDF708FF4FF09043044604
:1079B0005B691A07074A03F0010003F00D0348BF93
:1079C00040F002005361FFF7AFFE2046BDE81040D3
:1079D000FDF7F9BE002000481C20FDF723BB08B5C9
:1079E000FCF71AFEFCF776FEFCF775FEFCF782FE4C
:1079F000BDE80840FCF787BE08B5FCF786FEFCF73B
:107A000085FEFCF784FEBDE80840FCF782BE38B571
:107A10000446FDF7CBFE0546204624F0D5FD04467E
:107A20002846FDF7C7FE204638BD37B5044601910C
:107A3000FDF7BCFE01990546204624F085FD04466D
:107A40002846FDF7B7FE204603B030BD38B50546E1
:107A5000FDF7ACFE0446284624F0BEFD2046BDE8F6
:107A60003840FDF7A7BE00000A4619B1024B0021BD
:107A70001B681847704700BF680B002000F4E04007
:107A8000B0F5805F04D0A0F50053584258417047CC
:107A900001207047B0F5105F0DD009D8B0F5885FB0
:107AA00010D0B0F5905F0DD041F20103984209D09B
:107AB0006FF08500704721F04003802B02D0B1F5B4
:107AC000807F06D111F0070F14BF6FF086000020F1
:107AD00070476FF0860070470E4B0340B3F1607F34
:107AE00006D1B1F5885F14BF6FF0860000207047A3
:107AF000B3F1707F0BD101F4E043B3F5005F06D121
:107B000011F4E06F0CBF6FF08600002070476FF03B
:107B1000860070470000C07F8A422DE9F041804610
:107B20000D4600F01981944B944802EA030181420A
:107B30000BD0934922F0FF048C4206D0914C22F4E2
:107B40007F7121F00301A1421ED12B4083420BD053
:107B50008B4B25F0FF01994206D08A4925F47F73AB
:107B600023F003038B420FD115F0FF030CD086499D
:107B700043F000738B4207D16A4032F0FF030CBF21
:107B800001200020BDE8F08105F0FE43B3F1A06FB5
:107B900017D102F0FE43B3F1A06F40F0DF8082EA1C
:107BA000050333F47E1340F0D98015F40040E9D08A
:107BB000C5F30540C2F3054290428CBF002001206E
:107BC000E0E7B3F1407F40F0B48002F0FE43B3F150
:107BD000407F40F0C38082EA050333F47E1640F014
:107BE000BD8041462846FFF777FF002840F0B68069
:107BF000664C12F47C1704EA02043AD0B4F1607FB8
:107C0000C2F305477BD1D3B243F0007303F17E4149
:107C10000139022977D903F17E410439012974D948
:107C20005B498B4275D001318B4274D001318B425C
:107C300073D001318B426AD001318B4269D001315E
:107C40008B4268D003318B4263D001318B4262D0CA
:107C500001318B4261D001318B4208BF402615F4BF
:107C60007C1FC5F305435AD1BE4214BF002001203A
:107C700088E7B4F1607F2CD1D3B243F0007303F1F5
:107C80007E41013902296BD903F17E410439012972
:107C900068D93F498B4269D001318B4268D00131AC
:107CA0008B4267D001318B425ED001318B425DD077
:107CB00001318B425CD003318B4257D001318B4272
:107CC00056D001318B4255D001318B4208BF40273D
:107CD00099E7B4F1707FC2D108F4E043B3F5005FD7
:107CE00003D10127C8F302239F4008F4E043B3F512
:107CF000005FB4D10126C8F302239E40AFE7B4F180
:107D0000707FACD1F1E71026A9E71426A7E740263B
:107D1000A5E71C26A3E72026A1E730269FE712F45B
:107D20007C1F01D1B34217D02A047FF52BAFBB4291
:107D300043E7B3F1106F11D125F01F6323F47023D3
:107D400063B902F0FE43B3F1106F07D11148104040
:107D500040F01060A84288E7012013E7002011E7F7
:107D6000102750E714274EE740274CE71C274AE727
:107D7000202748E7302746E700FEFFFF0002000605
:107D80000009000600040006FF0000020000C07F9A
:107D9000080000020000FFF643680A461B0A10B400
:107DA00003D05DF8044B00F0B6BE4388B3B1018840
:107DB00001F4E040B0F5805F02D0B0F5005F02D181
:107DC0000733DB1009E047F2010081420AD15B086A
:107DD0000133DB1003EBC3033B33136000205DF87A
:107DE000044B704744F20100814202D1DB0810339A
:107DF000F3E747F20200814204D1DB0803EB4303BF
:107E00005A33EAE744F20200814204D1DB0803EB73
:107E100043034A33E1E721F0FF01B1F5E24FCFD050
:107E2000B1F5824F04D10733DB105B000133D4E797
:107E30006FF08500D3E77FB500F0FE46B6F1106F16
:107E40000D4603D06FF0850004B070BD20F01F64B4
:107E500024F47024002CF5D10A9C0294099C01940E
:107E6000089C009401F08AF810F1860FECD16B6841
:107E70001B0AE9D1E6E700002DE9F84388461746DA
:107E80001C4601F061F9054600283FD1D8F8006092
:107E9000B6F8009009F4E043B3F5804FF36808BFEB
:107EA00027F0010737EA030328D17CB3224A24F4E0
:107EB000FF7323F0010393420BD0204B24F0FF0209
:107EC0009A4206D01E4A24F47F7323F003039342A0
:107ED0001FD114F0FF0304D01A4A43F000739342F9
:107EE0001ED0224648463169FFF716FE074668B99C
:107EF000224648467169FFF70FFED0B96FF084053E
:107F000000233046C8F8003001F0BEF92846BDE82D
:107F1000F88304F0FE43B3F1407F04D12304E0D59D
:107F20006FF08605ECE7B3F1A06FF7D0054B9C42EC
:107F3000D6E73D46EAE700BF00020006000900065A
:107F400000040006FF00000238B5037904460D4620
:107F500033B9A36820462B6001F096F938B938BDD3
:107F6000D0E9081201F054FA0028F2D0F7E7002314
:107F70002B60F4E700232DE9F341D0E901680446C2
:107F80000F4630461146136001F088F9054688B95E
:107F9000304601F085F9054660B9F6B276B9B8F118
:107FA000000F05D1E36823F4FE4323F0030363B11C
:107FB0006FF08605284602B0BDE8F0810146A06852
:107FC00001F016F80028EDD1F2E74FF6F873628859
:107FD0009A421CD8238B23F00103002BE8D13946A9
:107FE00001A801F06FF805460028E3D10FCC3F68E7
:107FF0003E460FC694E807003B7986E807000BB9B8
:10800000019BBB603B8B23F001033B83D2E76FF006
:108010008505CFE770B5046A05460E463CB90120D8
:10802000FFF703FD286228B120466E6270BD6FF035
:108030008A00FBE76FF08C00F8E773B50E46114637
:1080400005460192FFF7E6FF044620B93146019A42
:10805000286A24F0D9FA204602B070BD2DE9F0411B
:10806000089E88461F46048822B96FF08504204682
:10807000BDE8F0812046FFF701FD0028F5D0336808
:108080000BB9D3003360B2F1005FEED24FF6F87354
:1080900031689942E9D82046FFF7FCFC04460028E5
:1080A000E5D1CD1D0699EB08B1EBD50F0BD393426B
:1080B0000CD14146384624F0A7FA3368079A0733B3
:1080C000DB081360D3E76FF08904D0E76FF0860414
:1080D000CDE710B50446006A10B1616AFFF7C4FC31
:1080E000206AFFF7B3FC0020C4E9080010BD38B5D2
:1080F0000446FFF7EEFFE3692822012B0CBF05467B
:108100006FF096050021204624F0A5FA284638BDD8
:1081100013B5044660B101A901F016F8044638B958
:108120000198C369012B06D901F0AEF86FF0830402
:10813000204602B010BD03791BB1806801F0BDF884
:1081400004460198FFF7D3FF002C08BF0446EFE771
:1081500073B5044608460E4600F0A8FC00232046EE
:108160001A4601A9FFF788FE70B93446019D0FCD6C
:108170000FC495E8070084E80700338B019803F0EB
:108180000103338301F080F802B070BD70B514466E
:1081900002881D461046049EFFF770FC50B944F259
:1081A000010322F44050984204D002F44F42B2F549
:1081B000824F0ED1B4420FD82246284624F024FA2A
:1081C0000021321B281924F046FA0020059B1C6070
:1081D00070BD6FF08500FBE76FF08900F8E72DE9CF
:1081E000F04188461F4616468CB022B30023012278
:1081F0003B6002A9FFF740FED0B9DDF808C003AC30
:108200006546CDE90A000FCD0FC495E8070084E864
:108210000700CDE900674346DCE9081203A800F037
:1082200078FD0446029801F02FF8002C18BF204674
:108230000CB0BDE8F0816FF08900F9E770B51D461C
:1082400044F2010314460288049E22F440509842EE
:1082500004D002F44F43B3F5824F13D102F4E0424D
:10826000B2F5804F0ED1B4420FD82246284624F0F2
:10827000CBF90021321B281924F0EDF90020059BD1
:108280001C6070BD6FF08500FBE76FF08900F8E7B8
:108290002DE9F0438946984617468DB052B3002326
:1082A00002A91A46C8F80030FFF7E6FDE0B9029EC1
:1082B00033885B041BD5354603ACCDE90A000FCDEE
:1082C0000FC495E8070084E80700CDE900784B4625
:1082D000D6E9081203A800F032FD0446029800F027
:1082E000D3FF002C18BF20460DB0BDE8F0836FF01F
:1082F0008604F3E76FF08900F6E72DE9F0411E46AA
:10830000002388B0054688461746CDE90433079216
:108310003360002A4CD005AA04A9FFF72BFE0446BF
:10832000D0B9284607A9FFF737FD0446A0B904983D
:10833000036AB3B1049B41465A882846069206AAAE
:10834000029203F1240201925A6A00921B6A3A4691
:1083500000F0AEFC044658B1049800B3FFF7C7FE26
:108360001DE00799FFF756FE04460028E2D0F3E728
:108370000498069B4288B2B943802B8813B10288C7
:108380009A4212D12B6A83B96B8813B142889A4200
:108390000BD13146FFF7D8FD04460028DCD120463A
:1083A00008B0BDE8F0819A42E7D06FF08604D3E7C9
:1083B0006FF08604F3E7036810B5044653B100F08C
:1083C000CFFD00232360A38823F4FF7323F0010370
:1083D000A38010BD1846FCE72DE9F04105461F4675
:1083E0002B68084616468CB0002B40F0F18002F056
:1083F000FE43B3F1407F40F0EE80002F134602A908
:1084000014BF4FF480524FF40052FFF735FD00289F
:1084100040F0CC80DDF8088003ACC446CDE90A000A
:10842000BCE80F000FC49CE8070084E80700304652
:10843000BDF80C10FFF750FB0446002840F0AD805B
:108440006B7916F47C1F67F300036B7105D0C6F3DC
:108450000544032C2C710FD876E0604B3340B3F108
:10846000607F74D1F3B243F0007303F17E42013AAE
:10847000022A3AD810242C71584B3340B3F1607F54
:1084800073D1F3B243F0007303F17E42013A022A42
:1084900040F28F8003F17E42043A012A40F28B8041
:1084A0004F4A934200F089800132934200F0878066
:1084B0000132934200F085800132934200F08380C4
:1084C0000132934279D00132934278D00332934201
:1084D00073D00132934272D00132934271D0013293
:1084E000934270D06FF0860457E003F17E42043A65
:1084F000012A01D81424BEE7394A934201D11C2431
:10850000B9E7384A934201D12024B4E7364A93426E
:1085100001D13024AFE7354A934201D14024AAE784
:10852000334A9342EBD001329342EDD0033293426F
:10853000E5D001329342E7D001329342E9D00132D3
:108540009342EBD000232B716FF0850425E0B3F14B
:10855000707FF7D101F4E043B3F5005FF2D101245D
:10856000C1F302239C40E4B273E7B3F1707FB9D149
:1085700001F4E043B3F5005FB4D1C1F3022301215C
:1085800099408C42AED8D8E908232846009603A922
:10859000DFB100F084FC044610B12846FFF70BFF62
:1085A000029800F071FE002C18BF20460CB0BDE808
:1085B000F0811021E5E71421E3E71C21E1E7202108
:1085C000DFE73021DDE74021DBE700F087FCE2E771
:1085D0006FF08800EAE76FF08600E7E70000C07FF1
:1085E00008000002090000020A0000020B0000025D
:1085F0000C0000020123FFF7EFBE38B50368054603
:1086000014464BB132B100F088FC044610B1284644
:10861000FFF7D1FE204638BD6FF08804FAE71A60F4
:108620002DE9F0411446026805460F46984602B30C
:108630004279D2071DD50279DAB1A2421CD800F0E6
:108640007AFC064678B92879A04204D22121221A60
:10865000384424F000F82846FFF7ADFE002E18BF7E
:108660003046BDE8F081224621213846C8F8004056
:10867000EFE76FF08800F4E76FF08900F1E7036837
:1086800010B504463BB100F0FCFB002323602379C6
:1086900023F003032371002010BD00002DE9F041F9
:1086A0000646012B98463368154608460CBF4FF422
:1086B00080724FF400728CB0002B68D105F0FE433D
:1086C000B3F1806F66D12B4602A9FFF7D5FB0446B4
:1086D000002841D13379314A23F00303954218BF72
:1086E00043F00103DDF808C03371BCF8003003F437
:1086F000E042B2F5005F3BD113F4E06FC3F3022018
:1087000036D0274A25F4807191420AD002F50072D2
:10871000954206D0234A954203D0A2F53F429142AA
:1087200026D101228240D2B200236746727103AC87
:10873000CDE90A330FCF0FC497E80700B8F1010F56
:1087400084E80700DCE908233046009503A91BD123
:1087500000F02CFB044610B13046FFF790FF029862
:1087600000F092FD002C18BF20460CB0BDE8F0814F
:1087700042F20402934205D10B4A95420CBF0C22EF
:108780000022D1E70022CFE700F02FFBE2E76FF0F5
:108790008800EAE76FF08600E7E700BF0044400486
:1087A0000010C00400FF4004000180040123FFF713
:1087B00075BF37B50468054694B1047904F0030425
:1087C000012C0DD0079C0194069C009400F02CFB1A
:1087D000044610B12846FFF752FF204603B030BDD3
:1087E0006FF08804F9E770B5046805461E46A4B129
:1087F000047904F00304012C0FD000F02DFB044693
:1088000020B92846BDE87040FFF739BF002328464D
:108810003360FFF734FF204670BD6FF08804FAE73D
:1088200037B50C4D0C462B7ADB070FD500230A46D3
:108830000193014601AB284602F025FA20B9019BBD
:10884000A34218BF6FF0930003B030BD6FF08800F3
:10885000FAE700BF781700202DE9F04705469A4651
:10886000002386B0059305F0FE43B3F1106F084670
:10887000DDE90E961746DDF8408022D12B464FF4F5
:10888000804205A9FFF7F8FA044658B953463A461C
:108890002846CDE901680599CDF80090FFF7CBFA9D
:1088A000044628B131464846FFF7BAFFC8F80060D1
:1088B000059800F0E9FC002C18BF204606B0BDE882
:1088C000F0876FF08604EDE7034610B50C461146BD
:1088D000DA6900880AB91B6A3BB9FFF7CFF838B1EB
:1088E0002046BDE81040FFF79BBF6FF0860010BD2B
:1088F0006FF08500FBE72DE9FF410023CDE901334F
:108900000B60438806460D46002B00F0878002AAC4
:1089100001A9FFF72FFB044600BB019B1B6A73B143
:108920000199304601F12403D1E9081200F09CF9C5
:108930000446002875D00198FFF7CBFB0EE0726863
:10894000170A60D1B6F8008071884046FFF796F8A4
:1089500060B14046FFF79EF8044660B1019808B147
:10896000FFF7C5FB204604B0BDE8F08128F0FF0307
:10897000B3F5E24F4FD108F4E043B3F5805F02D086
:10898000B3F5005F02D1CA1DD7100AE047F2010318
:1089900098450FD14A080132D21002EBC20202F10F
:1089A0003B07039703990198FFF734FB044600281F
:1089B000B6D0D3E744F20103984503D1CA0802F1C7
:1089C0001007EEE747F20203984505D1CA0802EB0B
:1089D000420202F15A07E4E744F20203984505D146
:1089E000CA0802EB420202F14A07DAE728F0FF0068
:1089F000B0F5E24FC7D0B0F5824F01BFCA1DD2100B
:108A00005200571CCDE7304603A900F084F8044615
:108A10000028C7D0A2E76FF085049FE76FF08604B7
:108A2000A0E729460198FFF78FFA0446002899D05D
:108A300094E7000008B500F02BFB0748037A13F019
:108A4000060F03D00822002123F005FEBDE80840F0
:108A50000C210148FFF708B87817002038B5124DEF
:108A6000297A11F0010102D00024204638BD0822E5
:108A7000284623F0F0FD02222B7A62F342032B7288
:108A800000F0FAFA044660B900F03CF810F1860FE5
:108A9000044600D028B92B7A43F001032B72002C36
:108AA000E2D0FFF7C7FFE0E77817002010B50446D3
:108AB000C069FEF7CBFF2046BDE81040242200210C
:108AC00023F0C9BD2DE9F04105460F4690461C46EE
:108AD0009BB119460120FEF7A8FF064678B1224651
:108AE000414623F091FDE86908B1FEF7AFFF002091
:108AF000C5E907642F80BDE8F0811E46F3E76FF0FB
:108B00008C00F8E708B502F0B3F818B9BDE80840E2
:108B100002F0B7B808BD426870B5120A05884388EC
:108B200006D0012A4CD000236FF086000B6020E0B5
:108B300005F4E042B2F5805F02D0B2F5005F05D1E6
:108B40000733DB0863B96FF0850012E047F20102DA
:108B500095420FD15B080133DB0803EBC3033B33C2
:108B600025F0FF05B5F5824F01D1012BEBD0002098
:108B70000B6070BD44F20102954202D1DB08103354
:108B8000EEE747F20202954204D1DB0803EB430310
:108B90005A33E5E744F20202954204D1DB0803EBC5
:108BA00043034A33DCE725F0FF02B2F5E24FC7D0BA
:108BB000B2F5824FC7D10733DB085B000133CFE743
:108BC00005F4E046DC1DB6F5805F25F0FF024FEAB4
:108BD000D40045D0B6F5005F42D047F20106B54259
:108BE00015D15B080133DB0803EBC3033B33B2F55C
:108BF000824F2DD00333800723F0030301D1072CCC
:108C000003D1B2F5824F08BF04332C33AFE744F2EF
:108C10000106B54202D1DB081033E8E747F202064D
:108C2000B54204D1DB0803EB43035A33DFE744F2D8
:108C30000206B54204D1DB0803EB43034A33D6E70F
:108C4000B2F5E24F0CD0B2F5824F03D143000133AD
:108C5000012B03D1B2F5824F0B68CBD1013BC9E7A1
:108C60000028F7D00346C2E72DE9F04145680446E5
:108C70002D0A0E461746984605D0012D14D06FF0E8
:108C80008600BDE8F08105886D0407D443463A4666
:108C900031462046BDE8F041FFF716BE02F07DFEEA
:108CA00010F1860FEDD1F1E7BDE8F04102F073BE9F
:108CB0002DE9F04F456885B02D0A0446DDE90E67C1
:108CC000894692469B46DDF8408006D0012D18D09B
:108CD0006FF0860005B0BDE8F08FCDE90178009611
:108CE00003F0E4F810F1860FF4D15B465246494692
:108CF0002046CDE90F780E9605B0BDE8F04FFFF79E
:108D0000ADB9CDE90F780E9605B0BDE8F04F02F091
:108D1000DBBF70B44468DDE90356240A05D0012C9A
:108D200008D070BC6FF086007047CDE9035670BC68
:108D3000FFF72CBACDE9035670BC02F0EDBC2DE96B
:108D4000F34745680446DDE90A672D0A88469146DF
:108D50009A4606D0012D16D06FF0860002B0BDE80D
:108D6000F087CDE9006702F0E6FE10F1860FF5D13D
:108D700053464A4641462046CDE90A6702B0BDE85F
:108D8000F047FFF75BBACDE90A6702B0BDE8F047EC
:108D900002F0CFBE70B45468240A012C02D170BC1A
:108DA00001F0B0BF6FF08B0070BC704737B5044660
:108DB0004868069D000A05D001280DD06FF0860096
:108DC00003B030BD009504F1080003F0DBFA002881
:108DD000F6D104232360F3E7009504F1080003F0C3
:108DE000D7F90028ECD10523F4E737B504464868E5
:108DF000069D000A05D001280DD06FF0860003B053
:108E000030BD009504F1080003F0DDFA0028F6D12A
:108E100004232360F3E7009504F1080003F0D9F977
:108E20000028ECD10523F4E770B40668DDE90345BA
:108E3000042E05D0052E09D070BC6FF08600704757
:108E4000CDE9034570BC083003F0DEBACDE9034537
:108E500070BC083003F0DEB910B40468042C06D0EE
:108E6000052C09D06FF086005DF8044B70475DF863
:108E7000044B083003F0D7BA5DF8044B083003F018
:108E8000DAB90368042B04D0052B05D06FF08600F7
:108E90007047083003F0D8BA083003F0DBB937B5B3
:108EA00004464868069D000A05D001280DD06FF0E1
:108EB000860003B030BD009504F1080003F0EEFA1F
:108EC0000028F6D104232360F3E7009504F108009D
:108ED00003F0C8F90028ECD10523F4E737B50446C0
:108EE0004868069D000A05D001280DD06FF0860065
:108EF00003B030BD009504F1080003F004FB002826
:108F0000F6D104232360F3E7009504F1080003F091
:108F1000ECF90028ECD10523F4E70368042B04D016
:108F2000052B05D06FF086007047083003F0EDBACE
:108F3000083003F0DCB910B40468042C06D0052C0A
:108F400009D06FF086005DF8044B70475DF8044B64
:108F5000083003F0F7BA5DF8044B083003F0D3B9DA
:108F60000368042B04D0052B05D06FF086007047F2
:108F7000083003F007BB083003F0D7B92DE9F04FF4
:108F800098460D46002391B007ACCDE90E33DDE9DC
:108F90001A9A4F6884460E4696460FCD0FC495E840
:108FA00007003F0A84E80700DDF870B006D0012F03
:108FB00011D06FF0860011B0BDE8F08F6046D6E9A1
:108FC0000823CDE903ABCDE90189CDF800E007A97D
:108FD00003F0E3FAEFE76046D6E90823CDE903ABF7
:108FE000CDE90189CDF800E007A903F0A9F9E2E78E
:108FF0006FF04043421E9A4208D329B100F140402D
:1090000098428CBF00210121084670470121FBE7EF
:1090100000F100420332022A38B504460D460ED84C
:109020002821144B01FB02339A6882421CD1DA6971
:10903000511C1CD000200132DA612B6038BD0121A7
:10904000FFF7D6FF68B10B4B9A689442EFD01A6BCA
:10905000944204D09A6D944206D15033E7E7283306
:10906000E5E76FF08700E9E76FF08B00E6E76FF068
:109070009600E3E784170020044A002092F8783035
:1090800043F0010382F87830704700BF8417002056
:1090900038B501250A4C2046E561FFF728F804F1B0
:1090A00028006564FFF723F804F15000E566FFF738
:1090B0001EF894F878306FF3000384F8783038BDE8
:1090C00084170020F8B51E4C064694F878300F46F9
:1090D000D8072ED500252346294618881A46A8B158
:1090E0002DB91A791AB1DA69002A08BF1D46013173
:1090F000032903F12803F0D115B96FF08C001AE0B1
:1091000001232846EB61FEF7F2FF2A46D369591C7A
:1091100002D16FF096000EE000200133D361141BE2
:10912000084BE4105C4304F10044033C34603A60B3
:10913000F8BD6FF0880000233B603360F8E700BFA4
:1091400084170020CDCCCCCC0023F0B50B604D4B68
:10915000074693F878300E46DB0793B071D5FFF7DA
:1091600057FF10F18C0F044668D1314602A8FFF773
:10917000A9FF0446002861D1012324223568014655
:109180006B600DEB0200AF6023F065FA0023002254
:10919000CDE9062307F1004303F58033B3F5704FA3
:1091A000CDE90444039455D2384606AA03A901F038
:1091B0000FFE044600284AD1039BAA680A9313F0C5
:1091C000FF0318BF1346CDE900000B9309AA03461D
:1091D000DDE90601FFF7DEFD10F18A0F04460CD031
:1091E000002834D16FF096043068FEF780FF14F148
:1091F0008C0F08BF6FF0870420E004A909A8FFF7CF
:109200008AFC044618BB28460499FEF703FF04466F
:10921000E8B9DDE9060105AB01936B6A09AA009381
:109220002B6AFFF7B7FD044670B9059B09AE6B6268
:109230000FCE0FC596E8070085E80700204613B05B
:10924000F0BD6FF08804F9E72846FEF742FF14F1FD
:109250008C0FC9D10023356809AA284606A90693B0
:10926000099300F02EF9044628B92846099A069970
:10927000FEF7E3FE04460999069800F018F9002C61
:10928000DCD0B1E78417002038B1C3691BB1013BC2
:10929000C361002070476FF0960070470020704750
:1092A0000020704707B500216A4601F057FA8C305C
:1092B00018BF012003B05DF804FB13B500216A4616
:1092C000044601F04BFA8C3002D1002002B010BDF0
:1092D0000021204601F06EFA014628B96A46204670
:1092E00001F03CFA8C30F0D06FF09800EEE700000F
:1092F000F8B515460E4607460822184621491C4671
:1093000023F082F9002323726372A372E3726B6805
:1093100039461A0A237362731A0C1B0EA273E37385
:109320002B8804F1240023741B0A63746B88A374D4
:109330001B0AE374EB681A0A237562751A0C1B0E7C
:10934000A275E3752B691A0A237662761A0C1B0E36
:10935000A276E3766B6984F820601A0A2377627735
:109360001A0C1B0EE377330A84F82130330CA277F2
:1093700084F82230330E324684F82330BDE8F840BA
:1093800023F042B94DDB02002DE9F84323290446BE
:109390000F4691469846089E04D86FF098052846D7
:1093A000BDE8F8830822194923F01EF90546002874
:1093B000F3D1A368002BF0D1216A243FB942C8F849
:1093C0000010EAD8B1F5005FE7D271B9C9F8000022
:1093D000E3687360238A3380638A73806369F36010
:1093E000A3693361E3697361D9E70120FEF71DFBCF
:1093F000C9F8000030B1D8F8002004F1240123F0AE
:1094000003F9E5E76FF08C05C9E700BF4DDB02000B
:109410002DE9FF4106461446884600293ED0002A21
:109420003CD0B2F5005F3CD202F12407394601205E
:10943000FEF7FBFA0546B8B30346324621464046DE
:10944000FFF756FFB66800243046FFF72BFF0128D0
:109450001ED021462B463A463046009401F09EF835
:109460000146C0B9304602AA01F078F9044620B995
:10947000029B9F4205D06FF098043046002101F016
:1094800099F92846FEF7E2FA204604B0BDE8F081DB
:109490006FF08A04F5E76FF09804F2E76FF0860446
:1094A000F2E76FF08D04EFE76FF08C04ECE710B596
:1094B000044608B1FEF7D8FA2046BDE81040FEF792
:1094C000C5BA2DE9F047D0F808A086B081460F460E
:1094D00016465046002104AA01F040F9044610BB8C
:1094E000DDF8108001204146FEF79FFA054600286E
:1094F00035D02146504604AA039401F02FF90446C2
:1095000070B903AB02462146CDE9005350464346AD
:1095100001F0C8F8039B0446984508D06FF0980402
:109520002846FEF793FA204606B0BDE8F0870028EB
:10953000F6D133463A4641462846CDF80090FFF72B
:1095400023FF04460028EBD13B682BB13368002B86
:1095500008BF6FF09104E3E76FF09104E0E76FF06C
:109560008C04E0E700207047B0F5802F24D010D89D
:10957000B0F5003F22D006D828B3B0F5803F14BF25
:10958000012048207047B0F5403F14BF01202C2037
:109590007047B0F5302F13D008D8B0F5E02F11D0B8
:1095A000B0F5202F14BF012010207047B0F57F0FB9
:1095B00014BF0120062070474B2070472A207047B7
:1095C000112070472120704708B570B1FCF721FACF
:1095D0004FF098435A6CD202FCD5586D10F47020AD
:1095E00004D0BDE80840FFF7BFBF212008BD08B583
:1095F00028B12022002123F02EF8002008BD2120D0
:10960000FCE708B1FFF7F3BF212070472DE9F041D7
:109610008CB08846DDE912761D460446002847D006
:10962000002945D0002F43D0002E41D013F00F0366
:109630003ED120482049A360002A18BF0146E361BB
:10964000C4E90013404609A900F0E2FB68BB2046CC
:109650000999FCF7D5F929462046FCF7D1F9694666
:10966000404600F0A3FC00BB69462046FCF7B4F975
:10967000404603A900F0B6FCB8B9204603A9FCF7A0
:10968000ABF906970127204645F0005506A9079734
:109690000895FCF7A1F9204609A909960A970B95A8
:1096A000FCF7A4F92046FFF78FFF0CB0BDE8F0816E
:1096B0002120FAE700010104000100042DE9F04730
:1096C00092B08846DDE91A571C460646DDF87090D0
:1096D000002864D0002962D0002F60D0B9F1000FBB
:1096E0005DD0002D5BD013F00F0358D12D482E49CB
:1096F000B360002A18BF0146F361C6E90013404673
:109700000FA900F085FB002846D130460F99FCF7E1
:1097100077F921463046FCF773F96946404600F078
:1097200045FC002838D169463046FCF755F94046DB
:1097300003A900F057FC78BB4FF001083046DFF872
:109740006CA003A9FCF748F944F00054304606A980
:109750000695CDF81C80CDF820A00997CDF828807B
:109760000B94FCF739F9304609A9FCF735F9304676
:109770000CA9CDF83090CDF834800E940F95CDF82B
:109780004080CDF844A0FCF731F930460FA9FCF732
:109790002DF93046FFF718FF12B0BDE8F087212001
:1097A000FAE700BF030201040302000410000020D6
:1097B000F0B50E46044695B0002875D0002973D048
:1097C000836B0F2B5ED800232568384A6068C5E993
:1097D0000023AB60EB6111A900F01AFB00285FD1F8
:1097E00011992068FCF70CF9A16B28460F2984BF5A
:1097F00001F00F011031FCF703F9606802A900F0D5
:10980000D5FB00284CD1206802A9FCF7E5F8606878
:1098100005A900F0E7FB002842D1274605A957F823
:10982000080BFCF7D9F80122214B089709920A93FB
:10983000A36B04F1180003F00F0141F000510B90ED
:109840000F2B0C920D910E900F9243F0005210923C
:1098500028D90A9B08A923F0005328460A93FCF74D
:10986000BBF80BA92846FCF7B7F801231196129311
:109870000F4B284611A91393FCF7B8F82068FFF79F
:10988000A3FE0DE000F10803019300F1280300930B
:109890000122D0E900011023FFF7B8FE002892D082
:1098A00015B0F0BD0EA9DDE72120F9E700000404A2
:1098B000100000202DE9F04F9DB090460546019123
:1098C000002800F0B080002900F0AD80806B831884
:1098D0001B09B3EB101F00F00F0700F09D80002361
:1098E0002E68524A6868C6E90023B360F36119A97B
:1098F00000F08EFA0446002840F08A8007EB080A40
:10990000199928682AF00F0BFCF77AF85946304667
:10991000FCF776F8686804A900F048FB04460028C4
:1099200076D1286804A9FCF757F8686807A900F001
:1099300059FB044600286BD12A464FF0010952F822
:10994000080B07A90292FCF747F8029A384B3046F9
:109950000AA90A920392CDF82C900C93FCF73CF8DC
:10996000019A47F00051ABEB070705F1180347F0E8
:1099700000570D93CDF838900F911092CDF8449088
:1099800012970F99304621F000510F910DA90293C3
:10999000FCF722F8304610A9FCF71EF8ABF11001D5
:1099A000139441F00051224CCDF85090159105F1DF
:1099B00028011691CDF85C9018941599304641F025
:1099C00080411591159921F00051159113A9FCF7CB
:1099D0000DF8304616A9FCF709F8039A19A9304684
:1099E0001992CDF868901B94FCF700F82868FFF7EF
:1099F000EBFD019BABEB0A0141441944029B044679
:109A0000AAEB0B02184622F0FFFDAA6B4244AA63A0
:109A100020461DB0BDE8F08F05F11800384422F053
:109A2000F3FD0024F1E72124F2E700BF0302000464
:109A3000100000202DE9FF4700230E46174604467C
:109A4000009300285BD00AB1002958D037F00308F2
:109A500007F0030A25D04FF000094FF0E063C4E996
:109A60000039012301962046029301A948F00053D2
:109A7000C4F80890C4F81C900393FBF7B7FF414665
:109A80002046FBF7BDFF2046FFF79EFD054640B18F
:109A900042464946304622F0DEFD284604B0BDE885
:109AA000F0874FF00009BAF1000F2AD04FF0E063C1
:109AB000C4E900390123CDF804D00293124B2046AB
:109AC00001A9C4F80890C4F81C900393FBF78EFF1B
:109AD00004212046FBF794FF2046FFF775FD05465D
